{
  "contractName": "SimpleStorage",
  "abi": [
    {
      "constant": true,
      "inputs": [
        {
          "name": "",
          "type": "uint256"
        }
      ],
      "name": "doctorList",
      "outputs": [
        {
          "name": "",
          "type": "bytes32"
        }
      ],
      "payable": false,
      "stateMutability": "view",
      "type": "function"
    },
    {
      "constant": true,
      "inputs": [
        {
          "name": "",
          "type": "bytes32"
        }
      ],
      "name": "ratingsReceived",
      "outputs": [
        {
          "name": "",
          "type": "uint8"
        }
      ],
      "payable": false,
      "stateMutability": "view",
      "type": "function"
    },
    {
      "inputs": [
        {
          "name": "doctorNames",
          "type": "bytes32[]"
        }
      ],
      "payable": false,
      "stateMutability": "nonpayable",
      "type": "constructor"
    },
    {
      "constant": true,
      "inputs": [
        {
          "name": "doctor",
          "type": "bytes32"
        }
      ],
      "name": "totalVotesFor",
      "outputs": [
        {
          "name": "",
          "type": "uint8"
        }
      ],
      "payable": false,
      "stateMutability": "view",
      "type": "function"
    },
    {
      "constant": false,
      "inputs": [
        {
          "name": "doctor",
          "type": "bytes32"
        }
      ],
      "name": "voteForDoctor",
      "outputs": [],
      "payable": false,
      "stateMutability": "nonpayable",
      "type": "function"
    }
  ],
  "bytecode": "0x608060405234801561001057600080fd5b50604051610337380380610337833981018060405281019080805182019291905050508060019080519060200190610049929190610050565b50506100c8565b828054828255906000526020600020908101928215610092579160200282015b82811115610091578251829060001916905591602001919060010190610070565b5b50905061009f91906100a3565b5090565b6100c591905b808211156100c15760008160009055506001016100a9565b5090565b90565b610260806100d76000396000f300608060405260043610610062576000357c0100000000000000000000000000000000000000000000000000000000900463ffffffff1680630e303caf14610067578063127ca4b4146100985780632f265cf7146100e15780635f4187b01461012c575b600080fd5b34801561007357600080fd5b506100966004803603810190808035600019169060200190929190505050610177565b005b3480156100a457600080fd5b506100c3600480360381019080803590602001909291905050506101c0565b60405180826000191660001916815260200191505060405180910390f35b3480156100ed57600080fd5b5061011060048036038101908080356000191690602001909291905050506101e3565b604051808260ff1660ff16815260200191505060405180910390f35b34801561013857600080fd5b5061015b6004803603810190808035600019169060200190929190505050610214565b604051808260ff1660ff16815260200191505060405180910390f35b6001600080836000191660001916815260200190815260200160002060008282829054906101000a900460ff160192506101000a81548160ff021916908360ff16021790555050565b6001818154811015156101cf57fe5b906000526020600020016000915090505481565b6000806000836000191660001916815260200190815260200160002060009054906101000a900460ff169050919050565b60006020528060005260406000206000915054906101000a900460ff16815600a165627a7a72305820f7590d7eadfc1f4a7209d438382a1c0e01e72e7ac90bc4c31710937b763244ab0029",
  "source": "pragma solidity ^0.4.17;\n// We have to specify what version of compiler this code will compile with\n\ncontract SimpleStorage {\n  /* mapping field below is equivalent to an associative array or hash.\n  */\n  \n  mapping (bytes32 => uint8) public ratingsReceived;\n  \n  /* We will use an array of bytes32 to store the list of movies\n  */\n  \n  bytes32[] public doctorList;\n\n  /* This is the constructor which will be called once when you\n  deploy the contract to the blockchain. When we deploy the contract,\n  we will pass an array of movies for which users will give ratings\n  */\n  function SimpleStorage(bytes32[] doctorNames) public {\n    doctorList = doctorNames;\n  }\n\n  // This function returns the total ratings a movie has received so far\n  function totalVotesFor(bytes32 doctor) view public returns (uint8) {\n    return ratingsReceived[doctor];\n  }\n\n  // This function increments the vote count for the specified movie. Equivalent to upvoting\n  function voteForDoctor(bytes32 doctor) public {\n    ratingsReceived[doctor] += 1;\n  }\n}",
  "sourcePath": "/Users/rnwhite/Documents/kaleido-project/ratingApp/backend/contracts/SimpleStorage.sol",
  "compiler": {
    "name": "solc",
    "version": "0.4.24+commit.e67f0147.Emscripten.clang"
  },
  "schemaVersion": "2.0.1",
  "updatedAt": "2018-09-09T21:36:27.025Z"
}